:100000000C942A000C945A080C9447000C94470056
:100010000C9447000C9447000C94F8070C94EE08DD
:100020000C9447000C9417090C9447000C94990801
:100030000C9447000C9447000C9447000C94470024
:100040000C9447000C9447000C9447000C94470014
:100050000C94470011241FBECFE5D8E0DEBFCDBF12
:1000600011E0A0E6B0E0EAE3FCE102C005900D92E9
:10007000AC3AB107D9F711E0ACEAB1E001C01D928A
:10008000A93BB107E1F70E94920C0C941B0E0C9453
:100090000000EF92FF920F931F937B018C0120E0F1
:1000A00030E040E05FE40E94C50388238CF0C80183
:1000B000B70120E030E040E05FE40E94C1010E940F
:1000C000F5039B01AC01205030404040504806C031
:1000D000C801B7010E94F5039B01AC01B901CA0137
:1000E0001F910F91FF90EF900895A0E0B0E0EBE733
:1000F000F0E00C94B30DDC012B01FA019C919230DD
:1001000008F439C1EB018881823008F433C194309E
:1001100069F4843009F02FC111969C91119789815F
:10012000981709F428C1A6E9B0E025C1843009F484
:1001300021C18230A9F4923009F01DC19A01AD01AC
:1001400088E0EA010990AE01E90109929E0181501F
:10015000C1F7E201898111969C918923818308C1AD
:10016000923009F407C112962D903C901397EB0141
:100170008A819B811496AD90BD90CD90DC901797AD
:10018000EC80FD800E811F819101281B390BB90184
:1001900037FF04C066277727621B730B6032710537
:1001A0000CF061C0121613066CF537014801062EDB
:1001B00004C096948794779467940A94D2F721E0C8
:1001C00030E040E050E004C0220F331F441F551FB1
:1001D0006A95D2F721503040404050402E213F21B7
:1001E00040235123211531054105510521F021E01E
:1001F00030E040E050E079018A01E628F72808293C
:1002000019293CC0232BD1F1260E371E350146019A
:10021000062E04C096948794779467940A94D2F734
:1002200021E030E040E050E004C0220F331F441FC3
:10023000551F6A95D2F721503040404050402A2146
:100240003B214C215D21211531054105510521F04E
:1002500021E030E040E050E059016A01A628B728CB
:10026000C828D9280BC0821593052CF01C01AA249C
:10027000BB24650103C0EE24FF24870111969C91E5
:10028000D20111968C91981709F445C0992339F041
:10029000A80197012A193B094C095D0906C0A6016E
:1002A00095012E193F09400B510B57FD08C01182D3
:1002B0003382228224833583468357831DC081E0A5
:1002C00081833382228288279927DC01821B930B4A
:1002D000A40BB50B84839583A683B7830DC0220F2F
:1002E000331F441F551F24833583468357838281E0
:1002F000938101979383828324813581468157813D
:10030000DA01C9010197A109B1098F5F9F4FAF4F72
:10031000BF4328F30BC0918333822282EA0CFB1C7B
:100320000C1D1D1DE482F5820683178383E0808304
:10033000248135814681578157FF1AC0C901AA27F8
:1003400097FDA095BA2F81709070A070B0705695EF
:10035000479537952795822B932BA42BB52B848318
:100360009583A683B7838281938101969383828349
:10037000DF0101C0D201CD01CDB7DEB7E2E10C94BF
:10038000CF0DA0E2B0E0E7ECF1E00C94BF0D698383
:100390007A838B839C832D833E834F835887E9E048
:1003A000EE2EF12CEC0EFD1ECE010196B7010E943F
:1003B000E6058E010F5E1F4FCE010596B8010E9423
:1003C000E6058A8991E089278A8BC701B801AE01C9
:1003D000475E5F4F0E9475000E941105A096E6E0FF
:1003E0000C94DB0DA0E2B0E0E8EFF1E00C94BF0D5F
:1003F00069837A838B839C832D833E834F835887C5
:10040000F9E0EF2EF12CEC0EFD1ECE010196B701A6
:100410000E94E6058E010F5E1F4FCE010596B801C2
:100420000E94E605C701B801AE01475E5F4F0E941A
:1004300075000E941105A096E6E00C94DB0DA0E289
:10044000B0E0E5E2F2E00C94B30D69837A838B832C
:100450009C832D833E834F835887CE010196BE0136
:10046000675F7F4F0E94E605CE010596BE016F5E75
:100470007F4F0E94E6059985923088F08989823005
:10048000C8F0943019F4823051F404C0843029F457
:10049000923081F486E990E0C6C0923049F420E0C1
:1004A0009A858A89981321E02A87CE010996BBC0D4
:1004B000823049F420E09A858A89981321E02A8BBA
:1004C000CE014196B0C02D843E844F8458886D88FB
:1004D0007E888F88988CEE24FF248701AA24BB2471
:1004E000650140E050E060E070E0E0E0F0E0C10174
:1004F00081709070892BE9F0E60CF71C081D191D1E
:100500009A01AB012A0D3B1D4C1D5D1D80E090E062
:10051000A0E0B0E0E614F7040805190520F481E036
:1005200090E0A0E0B0E0BA01A901480F591F6A1F8E
:100530007B1FAA0CBB1CCC1CDD1C97FE08C081E0F5
:1005400090E0A0E0B0E0A82AB92ACA2ADB2A3196B6
:10055000E032F10549F0660C771C881C991C569412
:10056000479437942794C3CFFA85EA892B893C892D
:100570008B859C85280F391F2E5F3F4F17C0CA01FE
:1005800081709070892B61F016950795F794E79428
:1005900080E090E0A0E0B0E8E82AF92A0A2B1B2BC3
:1005A00076956795579547952F5F3F4F77FDE7CF36
:1005B0000CC0440F551F661F771F17FD4160EE0CDE
:1005C000FF1C001F111F21503040403090E05907A0
:1005D00090E0690790E4790760F32B8F3C8FDB0193
:1005E000CA018F779070A070B07080349105A1051A
:1005F000B10561F447FD0AC0E114F10401051105DC
:1006000029F0405C5F4F6F4F7F4F40781A8EFE1786
:1006100011F081E08A8F4D8F5E8F6F8F78A383E01A
:10062000898FCE0149960E941105A096E2E10C94B3
:10063000CF0DA8E1B0E0EFE1F3E00C94BB0D6983CE
:100640007A838B839C832D833E834F835887B9E0C5
:10065000EB2EF12CEC0EFD1ECE010196B7010E948F
:10066000E6058E010F5E1F4FCE010596B8010E9470
:10067000E6052985223008F47EC03989323010F42D
:10068000B8017CC08A859A8989278A87243011F02D
:10069000223031F4231709F06EC066E970E06EC0B5
:1006A000343039F41D861E861F86188A1C861B86E8
:1006B00004C0323021F484E08987B7015FC02B8504
:1006C0003C858B899C89281B390B3C872B87ED84C3
:1006D000FE840F851889AD88BE88CF88D88CEA142F
:1006E000FB040C051D0540F4EE0CFF1C001F111F40
:1006F000215030403C872B8720E030E040E050E044
:1007000080E090E0A0E0B0E460E070E0EA14FB0478
:100710000C051D0540F0282B392B4A2B5B2BEA18C2
:10072000FB080C091D09B695A79597958795EE0CC2
:10073000FF1C001F111F6F5F7F4F6F31710531F775
:10074000DA01C9018F779070A070B0708034910584
:10075000A105B10561F427FD0AC0E114F10401050A
:10076000110529F0205C3F4F4F4F5F4F20782D87B8
:100770003E874F87588BBE01675F7F4FCB010E943A
:1007800011056896EAE00C94D70DA8E1B0E0EBEC17
:10079000F3E00C94BF0D69837A838B839C832D8354
:1007A0003E834F83588789E0E82EF12CEC0EFD1E26
:1007B000CE010196B7010E94E6058E010F5E1F4F24
:1007C000CE010596B8010E94E6058985823040F089
:1007D0008989823028F0C701B8010E945E0601C0F5
:1007E0008FEF6896E6E00C94DB0DACE0B0E0EBEF49
:1007F000F3E00C94C30D69837A838B839C83CE01D1
:100800000196BE016B5F7F4F0E94E6058D818230AD
:1008100061F1823050F1843021F48E81882351F1CE
:100820002EC02F81388537FD20C06E812F313105D4
:100830001CF06623F9F023C08EE190E0821B930B3D
:1008400029853A854B855C8504C056954795379533
:1008500027958A95D2F76623B1F05095409530954B
:1008600021953F4F4F4F5F4F0EC020E030E040E0FA
:1008700050E009C02FEF3FEF4FEF5FE704C020E0EB
:1008800030E040E050E8B901CA012C96E2E00C9457
:10089000DF0DA8E0B0E0EFE4F4E00C94BB0D7B01C9
:1008A0008C01611571058105910519F482E0898338
:1008B00060C083E089838EE1C82ED12CDC82CB829C
:1008C000ED82FE820F831887C801B7010E94C2041F
:1008D000FC013197F7FF3BC0222733272E1B3F0B2C
:1008E00057016801022E04C0D694C794B794A79408
:1008F0000A94D2F740E050E060E070E081E090E0E0
:10090000A0E0B0E004C0880F991FAA1FBB1F2A9562
:10091000D2F70197A109B1098E219F21A023B1230C
:100920000097A105B10521F041E050E060E070E0E2
:100930004A295B296C297D294D835E836F837887E3
:100940008EE190E08E1B9F0B9C838B8312C03097AF
:1009500081F00E2E04C0EE0CFF1C001F111F0A9424
:10096000D2F7ED82FE820F831887CE1ADF0ADC826F
:10097000CB821A82CE0101960E9411052896EAE0E8
:100980000C94D70DEF92FF920F931F937B018C0174
:1009900080E0E81680E0F80681E0080780E01807AC
:1009A00088F48FEFE816F1040105110531F028F005
:1009B00088E090E0A0E0B0E017C080E090E0A0E028
:1009C000B0E012C080E0E81680E0F80680E008079A
:1009D00081E0180728F088E190E0A0E0B0E004C0D2
:1009E00080E190E0A0E0B0E020E230E040E050E0C4
:1009F000281B390B4A0B5B0B04C016950795F7941F
:100A0000E7948A95D2F7F701E256FF4F8081281BC1
:100A1000310941095109C9011F910F91FF90EF90D0
:100A20000895DF92EF92FF920F931F93FC01E480F1
:100A3000F58006811781D1808081823048F480E082
:100A400090E0A0E1B0E0E82AF92A0A2B1B2BA5C010
:100A5000843009F49FC0823021F4EE24FF24870102
:100A600005C0E114F1040105110519F4E0E0F0E01E
:100A700096C0628173819FEF623879070CF05BC08A
:100A800022E83FEF261B370B2A3131052CF020E0FE
:100A900030E040E050E02AC0B801A701022E04C0B7
:100AA00076956795579547950A94D2F781E090E03F
:100AB000A0E0B0E004C0880F991FAA1FBB1F2A95B1
:100AC000D2F70197A109B1098E219F21A023B1235B
:100AD0000097A105B10521F081E090E0A0E0B0E031
:100AE0009A01AB01282B392B4A2B5B2BDA01C90168
:100AF0008F779070A070B07080349105A105B1051A
:100B000039F427FF09C0205C3F4F4F4F5F4F04C0AF
:100B1000215C3F4F4F4F5F4FE0E0F0E02030A0E01E
:100B20003A07A0E04A07A0E45A0710F0E1E0F0E03D
:100B300079018A0127C06038710564F5FB01E1582D
:100B4000FF4FD801C7018F779070A070B0708034CC
:100B50009105A105B10539F4E7FE0DC080E490E0F0
:100B6000A0E0B0E004C08FE390E0A0E0B0E0E80EC9
:100B7000F91E0A1F1B1F17FF05C016950795F7944E
:100B8000E794319687E016950795F794E7948A9550
:100B9000D1F705C0EE24FF248701EFEFF0E06E2FC0
:100BA000679566276795902F9F77D794DD24D79414
:100BB0008E2F8695492F462B582F5D29B701CA01E4
:100BC0001F910F91FF90EF90DF900895FC01DB01E2
:100BD000408151812281622F6F7770E0221F22278E
:100BE000221F9381892F880F822B282F30E0991F95
:100BF0009927991F11969C93119721153105A9F5F5
:100C0000411551056105710511F482E037C082E894
:100C10009FEF13969C938E9312979A01AB0167E016
:100C2000220F331F441F551F6A95D1F783E08C9321
:100C30000DC0220F331F441F551F12968D919C919A
:100C40001397019713969C938E931297203080E010
:100C5000380780E0480780E4580758F314962D932E
:100C60003D934D935C93179708952F3F310579F489
:100C7000411551056105710519F484E08C930895BF
:100C800064FF03C081E08C9312C01C9210C02F57E8
:100C9000304013963C932E93129783E08C9387E019
:100CA000440F551F661F771F8A95D1F770641496FD
:100CB0004D935D936D937C93179708951F93DC017B
:100CC000FB019C91923008F447C08081823008F487
:100CD00043C0943051F411961C91843099F5818170
:100CE000682F70E0611B71093FC0843021F09230A1
:100CF00031F48230B9F18181882389F12DC01196B8
:100D00001C9111978230F1F081811817D9F4129655
:100D10002D913C911397828193818217930794F0D0
:100D200028173907BCF014968D919D910D90BC91B8
:100D3000A02D2481358146815781281739074A071C
:100D40005B0718F4112341F00AC082179307A40728
:100D5000B50740F4112319F061E070E005C06FEFB2
:100D60007FEF02C060E070E0CB011F910895683012
:100D700008F070C0843008F06DC0813009F1813016
:100D800030F08230B1F1833009F064C04BC04130A3
:100D900059F42AB381E090E002C0880F991F6A9548
:100DA000E2F7282B2ABB08952AB381E090E002C025
:100DB000880F991F6A95E2F7809582238ABB089570
:100DC000413059F427B381E090E002C0880F991FA9
:100DD0006A95E2F7282B27BB089527B381E090E0BE
:100DE00002C0880F991F6A95E2F78095822387BB1E
:100DF0000895413059F424B381E090E002C0880F97
:100E0000991F6A95E2F7282B24BB089524B381E04B
:100E100090E002C0880F991F6A95E2F780958223BF
:100E200084BB0895413059F421B381E090E002C0C1
:100E3000880F991F6A95E2F7282B21BB089521B3EB
:100E400081E090E002C0880F991F6A95E2F78095D3
:100E5000822381BB0895683008F070C0843008F0A8
:100E60006DC0813009F1813030F08230B1F18330D2
:100E700009F064C04BC0413059F42BB381E090E0DD
:100E800002C0880F991F6A95E2F7282B2BBB0895A3
:100E90002BB381E090E002C0880F991F6A95E2F7BA
:100EA000809582238BBB0895413059F428B381E0AB
:100EB00090E002C0880F991F6A95E2F7282B28BBA3
:100EC000089528B381E090E002C0880F991F6A95C9
:100ED000E2F78095822388BB0895413059F425B309
:100EE00081E090E002C0880F991F6A95E2F7282BF5
:100EF00025BB089525B381E090E002C0880F991FBB
:100F00006A95E2F78095822385BB0895413059F4B4
:100F100022B381E090E002C0880F991F6A95E2F742
:100F2000282B22BB089522B381E090E002C0880FF5
:100F3000991F6A95E2F78095822382BB08956830F5
:100F4000D0F48430C0F4813049F0813028F0823010
:100F500039F0833081F406C089B305C086B303C07D
:100F600083B301C080B390E002C0959587956A95E0
:100F7000E2F78170089580E00895843080F4813034
:100F800049F0813028F0823039F0833041F406C0D6
:100F90006ABB089567BB089564BB089561BB08955B
:100FA000843080F4813049F0813028F0823039F08B
:100FB000833041F406C06BBB089568BB089565BBE0
:100FC000089562BB0895843088F4813049F08130FF
:100FD00028F0823039F0833049F406C089B308958F
:100FE00086B3089583B3089580B3089580E008958B
:100FF0001F920F920FB60F9211242F933F934F938E
:101000005F936F937F938F939F93AF93BF93EF9370
:10101000FF93E091AC01F091AD01309709F0099593
:10102000FF91EF91BF91AF919F918F917F916F91C0
:101030005F914F913F912F910F900FBE0F901F9096
:101040001895FC018E988CE08FBD8EB5887F9081BD
:10105000892B8EBD9EB581818295880F880F807CFB
:101060009F7B892B8EBD1DBC1CBC17BC16BC89B7D1
:10107000806289BF08959093AD018093AC0108957B
:101080009EB58295880F880F807C9F7B982B9EBD94
:10109000089526B537B5C90108951DBC1CBC089537
:1010A0001FBC1EBC1DBC1CBC17BC16BC89B78F7DE9
:1010B00089BF08951F920F920FB60F9211242F939C
:1010C0003F934F935F936F937F938F939F93AF93D0
:1010D000BF93EF93FF93E091AE01F091AF01309792
:1010E00009F00995FF91EF91BF91AF919F918F9179
:1010F0007F916F915F914F913F912F910F900FBE14
:101100000F901F9018959093AF018093AE010895B2
:1011100083E062E040E00E94B70683E062E041E0E5
:101120000E942B0785B7816085BF8BB780648BBF1A
:1011300008951F920F920FB60F9211242F933F9391
:101140004F935F936F937F938F939F93AF93BF93CF
:10115000EF93FF93E091B001F091B101309709F066
:101160000995FF91EF91BF91AF919F918F917F91E1
:101170006F915F914F913F912F910F900FBE0F9004
:101180001F90189512BE83B7816883BF89B78160AD
:1011900089BF08959093B1018093B001089512BE64
:1011A00090E0A0E0B0E0BC01CD010E94490420E045
:1011B00030E048EC52E40E94190320E030E04FE7B1
:1011C00053E40E941F020E9449006CBF8AE683BF5D
:1011D00081E063E041E00E94B70608951F920F92FC
:1011E0000FB60F9211242F933F934F935F936F93FA
:1011F0007F938F939F93AF93BF93EF93FF93E09170
:10120000B201F091B301309709F00995FF91EF9188
:10121000BF91AF919F918F917F916F915F914F910E
:101220003F912F910F900FBE0F901F9018951F9216
:101230000F920FB60F9211242F933F934F935F930A
:101240006F937F938F939F93AF93BF93EF93FF938E
:10125000E091B201F091B301309709F00995FF9147
:10126000EF91BF91AF919F918F917F916F915F911E
:101270004F913F912F910F900FBE0F901F90189597
:10128000FC01808191819DBD8CBD828193819BBD3C
:101290008ABD8481958197BD86BD2781222319F45B
:1012A00089B7846004C0243021F489B7806189BF84
:1012B00005C02E3019F48FB5806802C08FB58C60E0
:1012C0008FBD9FB5822F8370892B8FBD8EB530E087
:1012D00046814770482BC901847090709595879519
:1012E0009595879553E0880F991F5A95E1F7482BFC
:1012F0002870307093E0359527959A95E1F784E052
:10130000220F331F8A95E1F7422B4EBD08951FBC73
:101310001EBC1DBC1CBC17BC16BC89B78B7E89BF0C
:101320000895DF93CF93CDB7DEB728970FB6F89423
:10133000DEBF0FBECDBF1A8219829C838B838FE1E3
:101340009EE49E838D8382E08F838EE08887CE012A
:1013500001960E94400928960FB6F894DEBF0FBE92
:10136000CDBFCF91DF9108959093B3018093B201E7
:101370000895FC0182E08BB92081822F84708861FE
:101380008AB930E0418150E06281660F660F660FD6
:101390006068C90181709070880F991F682BCA011D
:1013A00081709070B4E0880F991FBA95E1F7682BAF
:1013B0002270307035952795220F331F220F331F6F
:1013C000622B427050705595479595E0440F551F1C
:1013D0009A95E1F7642B69B92381348140E050E0AC
:1013E00083E0220F331F441F551F8A95D1F760E019
:1013F00072E18AE790E00E94760D215030403CB9BE
:1014000029B908955D9BFECF8CB908955F9BFECFEF
:101410008CB10895FC0104C05D9BFECF8CB9319660
:1014200080818823C9F708956F927F928F929F924F
:10143000AF92BF92CF92DF92EF92FF920F931F93E2
:101440003B014C01611571058105910551F45D9BCE
:10145000FECF80E38CB9F1E0AF2EB12CC12CD12CA2
:1014600043C0E1E0AE2EB12CC12CD12CC601B50198
:101470002AE030E040E050E00E94430D7B018C0107
:10148000C401B3010E94760D5B016C01AE0CBF1C60
:10149000C01ED11EC401B3012AE030E040E050E09C
:1014A0000E94760DC901DA013C014D0161147104FD
:1014B00081049104D9F618C05D9BFECFC601B50129
:1014C0002AE030E040E050E00E94760D605D6CB9AB
:1014D000C601B5012AE030E040E050E00E94760D00
:1014E000C901DA015C016D0181E0A816B104C104F3
:1014F000D10411F71F910F91FF90EF90DF90CF90E3
:10150000BF90AF909F908F907F906F900895DC0177
:101510005F9BFECF8CB18C9390E008C09F5F5F9B78
:10152000FECF8CB1FD01E90FF11D8083FD01E90FB4
:10153000F11D8081833291F710820895FF920F93FD
:101540001F93F82E81E061E040E00E942B0781E0CC
:1015500060E041E00E942B0700ED17E0C801019711
:10156000F1F781E062E041E00E942B07C80101979A
:10157000F1F780E06F2D0E94D007C8010197F1F7C5
:1015800081E062E040E00E942B07C8010197F1F77B
:101590001F910F91FF9008951F93CF93DF93EC015C
:1015A00010E003C00E949E0A1F5FFE01E10FF11DC3
:1015B00080818823B9F7DF91CF911F9108950F9310
:1015C0001F93DF93CF93CDB7DEB760970FB6F89434
:1015D000DEBF0FBECDBF8E010F5F1F4FB8014AE0C7
:1015E00050E00E94EA0DC8010E94CC0A60960FB636
:1015F000F894DEBF0FBECDBFCF91DF911F910F9149
:101600000895FF920F931F93F82E81E061E040E070
:101610000E942B0781E060E040E00E942B0700ED74
:1016200017E0C8010197F1F781E062E041E00E9414
:101630002B07C8010197F1F780E06F2D0E94D007BA
:10164000C8010197F1F781E062E040E00E942B07BA
:10165000C8010197F1F71F910F91FF90089581E064
:101660000E94010B0895813039F0813050F08230B2
:1016700029F0833031F404C0605C03C0605F01C0B6
:10168000605B862F80680E94010B08950F931F9363
:101690008A010E94330BC8010E94CC0A1F910F914E
:1016A000089581E060E041E00E94B70681E062E0D9
:1016B00041E00E94B70681E061E041E00E94B70688
:1016C00080E49CE90197F1F780E06FEF0E94BD078D
:1016D00088E30E94010B8CE00E94010B81E00E94D4
:1016E000010B08952F923F924F925F926F927F92DB
:1016F0008F929F92AF92BF92CF92DF92EF92FF9222
:101700000F931F93DF93CF93CDB7DEB71B012C014F
:1017100039014A01A60195016D897E898F89988DCD
:1017200062197309840995092E193F09400B510B61
:101730000E94430D6218730884089508A401930160
:101740000E94980D59016A01AE0CBF1CC01ED11E2B
:10175000C501CF91DF911F910F91FF90EF90DF9026
:10176000CF90BF90AF909F908F907F906F905F9041
:101770004F903F902F900895AF92BF92CF92DF92FB
:10178000EF92FF920F931F9300D000D090E0A0E063
:10179000B0E0EDB7FEB781839283A383B48360E0AA
:1017A00070E080E090E024EB30E040E050E0FEEEBE
:1017B000EF2EF2E0FF2E012D112DE4ECAE2EE9E02C
:1017C000BE2EC12CD12C0E94720B0F900F900F9047
:1017D0000F900E9491091F910F91FF90EF90DF9061
:1017E000CF90BF90AF900895DF93CF93CDB7DEB782
:1017F00028970FB6F894DEBF0FBECDBF83E065E03B
:1018000041E00E94B706DE011196EEE9F1E088E0C2
:1018100001900D928150E1F7CE0101960E9440099E
:1018200028960FB6F894DEBF0FBECDBFCF91DF91E3
:1018300008959091B701913021F58091B8018823E6
:1018400041F412BE9093B8011092B6011092B50106
:1018500008958091B5019091B60122B7982F8827FD
:10186000820F911D62ED71E00E94620D6093B401E0
:1018700012BE1092B7011092B6011092B5011092EB
:10188000B80108958091B5019091B60101969093A9
:10189000B6018093B5018091B5019091B601875250
:1018A000924048F012BE1092B6011092B50110920B
:1018B000B7011092B801089582E060E041E00E9413
:1018C0002B0788E28A95F1F782E060E040E00E9411
:1018D0002B0708958091B701882329F40E945C0C9E
:1018E00081E08093B7016091B40170E080E090E006
:1018F0000E94140A8091B401089582E060E041E002
:101900000E94B7060E94C20882E49CE00E94CA08B6
:101910000E94880889E19CE00E9483088FB7806854
:101920008FBF0895CF92DF92EF92FF920F931F9394
:10193000DF93CF9300D000D00F92CDB7DEB7DE019A
:101940001196E6EAF1E085E001900D928150E1F711
:101950000E94510BCE0101960E94B9090E94F40B1E
:101960000E947D0C80E065E040E650E00E94460B5E
:1019700081E060E048E650E00E94460B82E060E0D3
:1019800047E750E00E94460B83E060E046E850E005
:101990000E94460B1AE033C0812F0E94BC0B612FBE
:1019A00070E080E090E00E94140A80E20E94020A47
:1019B0008CE20E94020A0E946A0C082F8EE20E94AA
:1019C000020A80E20E94020A82E06DE00E94330B6C
:1019D000143618F480E20E949E0A812F90E00E9443
:1019E000DF0A83E06AE00E94330B0A3018F480E2D9
:1019F0000E949E0A802F90E00E94DF0A1F5F1A3A21
:101A000058F28AEAC82ED12CE12CF12C1C2D8C2DF9
:101A10000E94BC0BC701B6010E94140A80E20E941A
:101A2000020A8CE20E94020A0E946A0C082F8EE2CF
:101A30000E94020A80E20E94020A82E06DE00E9497
:101A4000330B143618F480E20E949E0AC6010E94ED
:101A5000DF0A83E06AE00E94330B0A3018F480E268
:101A60000E949E0A802F90E00E94DF0A0894C1081D
:101A7000D108E108F1088AE0C816D104E104F104B4
:101A800029F61AE089CF629FD001739FF001829FEF
:101A9000E00DF11D649FE00DF11D929FF00D839FFD
:101AA000F00D749FF00D659FF00D9927729FB00D9A
:101AB000E11DF91F639FB00DE11DF91FBD01CF01AD
:101AC00011240895AA1BBB1B51E107C0AA1FBB1F0D
:101AD000A617B70710F0A61BB70B881F991F5A95BA
:101AE000A9F780959095BC01CD010895A1E21A2E29
:101AF000AA1BBB1BFD010DC0AA1FBB1FEE1FFF1FB2
:101B0000A217B307E407F50720F0A21BB30BE40B01
:101B1000F50B661F771F881F991F1A9469F7609548
:101B20007095809590959B01AC01BD01CF01089502
:101B300097FB092E05260ED057FD04D0D7DF0AD01B
:101B4000001C38F450954095309521953F4F4F4FEC
:101B50005F4F0895F6F790958095709561957F4F4A
:101B60008F4F9F4F08952F923F924F925F926F92A7
:101B70007F928F929F92AF92BF92CF92DF92EF921D
:101B8000FF920F931F93CF93DF93CDB7DEB7CA1B9E
:101B9000DB0B0FB6F894DEBF0FBECDBF09942A88C9
:101BA000398848885F846E847D848C849B84AA8471
:101BB000B984C884DF80EE80FD800C811B81AA81FE
:101BC000B981CE0FD11D0FB6F894DEBF0FBECDBFC9
:101BD000ED010895FB019F01E8944230C4F04532C5
:101BE000B4F44A3029F497FB1EF4909581959F4FE9
:101BF000642F77270E94620D805D8A330CF0895D27
:101C00008193CB010097A1F716F45DE25193108206
:101C1000C9010C940B0EDC01FC01672F7191772335
:101C2000E1F7329704C07C916D9370836291AE1797
:0A1C3000BF07C8F30895F894FFCF32
:101C3A0057656C636F6D6500546172656B2773201D
:101C4A0053797374656D00536572766F20416E67C0
:101C5A006C65203A20004465746563746564203AB3
:101C6A00202020636D000000000000000000000139
:101C7A000202030303030404040404040404050520
:101C8A0005050505050505050505050505050606F8
:101C9A0006060606060606060606060606060606DA
:101CAA0006060606060606060606060606060707C8
:101CBA0007070707070707070707070707070707AA
:101CCA00070707070707070707070707070707079A
:101CDA00070707070707070707070707070707078A
:101CEA000707070707070707070707070707080878
:101CFA00080808080808080808080808080808085A
:101D0A000808080808080808080808080808080849
:101D1A000808080808080808080808080808080839
:101D2A000808080808080808080808080808080829
:101D3A000808080808080808080808080808080819
:101D4A000808080808080808080808080808080809
:101D5A0008080808080808080808080808080808F9
:101D6A0008080808080808080808080808080000F9
:0C1D7A00EE021F4E020E03000080250048
:00000001FF
